:100000000C9463000C948B000C948B000C948B006C
:100010000C948B000C948B000C948B000C94B50307
:100020000C948B000C948B000C948B000C948B0024
:100030000C948B000C948B000C948B000C948B0014
:100040000C948F040C948B000C945D040C94370476
:100050000C948B000C948B000C948B000C948B00F4
:100060000C948B000C948B000000000024002700EF
:100070002A000000000023002600290000000008DC
:10008000000201000003040700000000000000005F
:10009000010204081020408001020408102001021F
:1000A0000408102000000000250028002B00040494
:1000B0000404040404040202020202020303030310
:1000C00003030200D90A11241FBECFEFD8E0DEBF20
:1000D000CDBF11E0A0E0B1E0E2EDF6E102C0059095
:1000E0000D92A831B107D9F721E0A8E1B1E001C034
:1000F0001D92AF3CB207E1F710E0C3E6D0E004C0C8
:100100002197FE010E94520BC236D107C9F70E9407
:10011000D9040C94670B0C940000AF92BF92CF925D
:10012000DF92EF92FF920F931F93CF93DF936C01B7
:100130007B018B01040F151FEB015E01AE18BF0898
:10014000C017D10759F06991D601ED91FC9101904A
:10015000F081E02DC6010995892B79F7C501DF9162
:10016000CF911F910F91FF90EF90DF90CF90BF90B4
:10017000AF900895FC01538D448D252F30E0842FDE
:1001800090E0821B930B541710F0CF9608950197BF
:100190000895FC01918D828D981761F0A28DAE0FAC
:1001A000BF2FB11D5D968C91928D9F5F9F73928F33
:1001B00090E008958FEF9FEF0895FC01918D828D5F
:1001C000981731F0828DE80FF11D858D90E008952C
:1001D0008FEF9FEF0895FC01918D228D892F90E084
:1001E000805C9F4F821B91098F739927089581E24C
:1001F00091E00E94EB0021E0892B09F420E0822F9E
:10020000089580E090E0892B29F00E94F700811189
:100210000C9400000895FC01A48DA80FB92FB11D06
:10022000A35ABF4F2C91848D90E001968F7399272C
:10023000848FA689B7892C93A089B1898C9183700A
:1002400080648C93938D848D981306C00288F38903
:10025000E02D80818F7D80830895EF92FF920F9330
:100260001F93CF93DF93EC0181E0888F9B8D8C8D62
:1002700098131AC0E889F989808185FF15C09FB756
:10028000F894EE89FF896083E889F9898081837019
:10029000806480839FBF81E090E0DF91CF911F91C8
:1002A0000F91FF90EF900895F62E0B8D10E00F5FE9
:1002B0001F4F0F731127E02E8C8D8E110CC00FB6BF
:1002C00007FCFACFE889F989808185FFF5CFCE0157
:1002D0000E940B01F1CFEB8DEC0FFD2FF11DE35AC6
:1002E000FF4FF0829FB7F8940B8FEA89FB898081DA
:1002F0008062CFCFCF93DF93EC01888D8823B9F054
:10030000AA89BB89E889F9898C9185FD03C0808120
:1003100086FD0DC00FB607FCF7CF8C9185FFF2CF9D
:10032000808185FFEDCFCE010E940B01E9CFDF91E7
:10033000CF910895833081F028F4813099F0823094
:10034000A9F008958730A9F08830C9F08430B1F45D
:10035000809180008F7D03C0809180008F77809393
:100360008000089584B58F7784BD089584B58F7D0E
:10037000FBCF8091B0008F778093B000089580917B
:10038000B0008F7DF9CF1F93CF93DF93282F30E0FC
:10039000F901E458FF4F8491F901E057FF4FD491E0
:1003A000F901E255FF4FC491CC23A9F0162F81111A
:1003B0000E949A01EC2FF0E0EE0FFF1FEC55FF4F6B
:1003C000A591B4918FB7F894EC91111108C0D09514
:1003D000DE23DC938FBFDF91CF911F910895DE2B39
:1003E000F8CFCF93DF9390E0FC01E057FF4F2491CB
:1003F00082559F4FFC0184918823D1F090E0880FB3
:10040000991FFC01E859FF4FA591B491FC01EC55EF
:10041000FF4FC591D491623071F49FB7F8943C912D
:10042000822F809583238C93E8812E2B28839FBF76
:10043000DF91CF9108958FB7F894EC912E2B2C93E8
:100440008FBFF6CF4F925F926F927F928F929F9263
:10045000AF92BF92CF92DF92EF92FF920F931F93D2
:10046000CF938C016A017B0180910201883099F061
:100470008F3F09F453C0CF911F910F91FF90EF90E0
:10048000DF90CF90BF90AF909F908F907F906F90B4
:100490005F904F900895E2ECF0E0C491C7FDEBCF80
:1004A00061E088E00E94F1012801712C612CCC23CD
:1004B000F1F0980150E040E0C23009F09EC0280100
:1004C0003A0164E274EF80E090E00E94280B490159
:1004D0005A0181E0881A9108A108B10895E08FEFD0
:1004E00088169104A104B10409F00CF4DFC062E1A4
:1004F0007AE780E090E0A30192010E94280B490175
:100500005A0181E0881A9108A108B10896E0C1114A
:10051000CDC085B5887F846085BD84C088E0809328
:100520000201E2ECF0E0C491CF3F09F4A4CFC13066
:1005300021F150F0C23009F43EC0C7FD9CCF61E00C
:1005400088E00E94F101B5CF14BC15BC84B582606F
:1005500084BD85B5816085BDE6EBF0E0E491F0E017
:10056000EE0FFF1FEC55FF4F85919491E8E9F0E005
:10057000E491E093C201C0E093CF1092800010920A
:10058000810080918100886080938100809181004A
:10059000816080938100E6EBF0E0E491F0E0EE0F03
:1005A000FF1FEC55FF4F85919491E8E9F0E0E4914D
:1005B000E093C10175CF1092B0001092B10080910C
:1005C000B00082608093B0008091B1008160809320
:1005D000B100E6EBF0E0E491F0E0EE0FFF1FEC5528
:1005E000FF4F859194919093C0018093BF01E8E9FA
:1005F000F0E0E491E093BE0153CF60E072E18AE75E
:1006000090E00E94280B49015A0181E0881A910864
:10061000A108B108C13031F480918100887F8160E8
:1006200080938100D801AA0FBB1FA70196010E94E9
:10063000470B28EE33E040E050E00E94060BC1304B
:1006400099F0C23019F1C11116CF87BC2093CB01AC
:100650003093CC014093CD015093CE0180916E0038
:10066000826080936E0007CF90928900809288000C
:100670002093C7013093C8014093C9015093CA0128
:1006800080916F00826080936F00F5CE8092B300FE
:100690002093C3013093C4014093C5015093C60118
:1006A00080917000826080937000E5CE8091B100EF
:1006B000887F892B8093B100B5CF3FB7F8948091A4
:1006C0001D0190911E01A0911F01B091200126B53E
:1006D000A89B05C02F3F19F00196A11DB11D3FBF7A
:1006E000BA2FA92F982F8827BC01CD01620F711D49
:1006F000811D911D42E0660F771F881F991F4A9543
:10070000D1F708958F929F92AF92BF92CF92DF92CE
:10071000EF92FF926B017C010E945D034B015C0133
:10072000C114D104E104F104B9F00E945D03681919
:1007300079098A099B09683E73408105910580F318
:1007400021E0C21AD108E108F10888EE880E83E0A2
:10075000981EA11CB11CE4CFFF90EF90DF90CF90CA
:10076000BF90AF909F908F9008951F920F920FB6F9
:100770000F9211242F933F934F935F936F937F9327
:100780008F939F93AF93BF93EF93FF938091C30198
:100790009091C401A091C501B091C601892B8A2B0B
:1007A0008B2BD1F19091BE01E091BF01F091C0017E
:1007B0008081892780838091C3019091C401A09199
:1007C000C501B091C601181619061A061B069CF43D
:1007D0008091C3019091C401A091C501B091C6015F
:1007E0000197A109B1098093C3019093C401A0931B
:1007F000C501B093C601FF91EF91BF91AF919F9159
:100800008F917F916F915F914F913F912F910F90B9
:100810000FBE0F901F90189580910201E2ECF0E05E
:10082000E4919FEF90930201E13051F030F0E2301B
:1008300069F060E00E94C301DECF10926E00F9CF34
:1008400090916F009D7F90936F00F3CF9091700017
:100850009D7F9093700091E09093B0009091B100D3
:10086000987F94609093B1001092B300E2CF1F92F2
:100870000F920FB60F9211242F933F934F935F93D4
:100880006F937F938F939F93AF93BF93EF93FF9358
:1008900081E291E00E940B01FF91EF91BF91AF9136
:1008A0009F918F917F916F915F914F913F912F9188
:1008B0000F900FBE0F901F9018951F920F920FB6BA
:1008C0000F9211242F938F939F93EF93FF93E091B7
:1008D0003101F09132018081E0913701F0913801CE
:1008E00082FD1BC0908180913A018F5F8F732091B0
:1008F0003B01821741F0E0913A01F0E0EF5DFE4FDD
:10090000958F80933A01FF91EF919F918F912F9155
:100910000F900FBE0F901F9018958081F4CF1F92FB
:100920000F920FB60F9211242F933F938F939F93A3
:10093000AF93BF938091190190911A01A0911B016F
:10094000B0911C013091180123E0230F2D3758F589
:100950000196A11DB11D2093180180931901909358
:100960001A01A0931B01B0931C0180911D0190916D
:100970001E01A0911F01B09120010196A11DB11D82
:1009800080931D0190931E01A0931F01B09320013D
:10099000BF91AF919F918F913F912F910F900FBE7B
:1009A0000F901F90189526E8230F0296A11DB11DE8
:1009B000D2CFCF93DF93CDB7DEB7A1970FB6F89420
:1009C000DEBF0FBECDBF789484B5826084BD84B590
:1009D000816084BD85B5826085BD85B5816085BD3A
:1009E00080916E00816080936E00109281008091F2
:1009F000810082608093810080918100816080937A
:100A00008100809180008160809380008091B1009E
:100A100084608093B1008091B00081608093B000C9
:100A200080917A00846080937A0080917A0082605D
:100A300080937A0080917A00816080937A0080911F
:100A40007A00806880937A001092C100E0913101B1
:100A5000F091320182E08083E0912D01F0912E012E
:100A60001082E0912F01F09130018FEC8083109281
:100A70003901E0913501F091360186E08083E09103
:100A80003301F0913401808180618083E0913301F2
:100A9000F0913401808188608083E0913301F0918E
:100AA0003401808180688083E0913301F0913401CA
:100AB00080818F7D808361E088E00E94F10144EFB6
:100AC00051E060E070E088EC90E00E9422026AEF62
:100AD00070E080E090E00E94820344E650E060E035
:100AE00070E080E991E00E94220261E083E00E94D0
:100AF000F10161E084E00E94F10161E085E00E9483
:100B0000F10161E086E00E94F10161E087E00E946E
:100B1000F10161E088E00E94F10161E089E00E945A
:100B2000F10161E08AE00E94F10161E08BE00E9446
:100B3000F10161E08CE00E94F10161E08DE00E9432
:100B4000F10162E082E00E94F10122E9222E20E020
:100B5000322E30EBA32E30E0B32E4AE0442E512C3F
:100B6000612C712C50E0852E50E0952E00910001F3
:100B70001091010161E083E00E94C3016801012E30
:100B8000000CEE08FF08C701B6010E94820360E076
:100B900082E00E94C30160E083E00E94C30160E044
:100BA00084E00E94C30160E085E00E94C30160E030
:100BB00086E00E94C30160E087E00E94C30160E01C
:100BC00088E00E94C30160E089E00E94C30160E008
:100BD0008AE00E94C30160E08BE00E94C30160E0F4
:100BE0008CE00E94C30160E08DE00E94C30161E0DF
:100BF00084E00E94C301C701B6010E94820360E045
:100C000082E00E94C30160E083E00E94C30160E0D3
:100C100084E00E94C30160E085E00E94C30160E0BF
:100C200086E00E94C30160E087E00E94C30160E0AB
:100C300088E00E94C30160E089E00E94C30160E097
:100C40008AE00E94C30160E08BE00E94C30160E083
:100C50008CE00E94C30160E08DE00E94C30161E06E
:100C600085E00E94C301C701B6010E94820360E0D3
:100C700082E00E94C30160E083E00E94C30160E063
:100C800084E00E94C30160E085E00E94C30160E04F
:100C900086E00E94C30160E087E00E94C30160E03B
:100CA00088E00E94C30160E089E00E94C30160E027
:100CB0008AE00E94C30160E08BE00E94C30160E013
:100CC0008CE00E94C30160E08DE00E94C30161E0FE
:100CD00086E00E94C301C701B6010E94820360E062
:100CE00082E00E94C30160E083E00E94C30160E0F3
:100CF00084E00E94C30160E085E00E94C30160E0DF
:100D000086E00E94C30160E087E00E94C30160E0CA
:100D100088E00E94C30160E089E00E94C30160E0B6
:100D20008AE00E94C30160E08BE00E94C30160E0A2
:100D30008CE00E94C30160E08DE00E94C30161E08D
:100D400087E00E94C301C701B6010E94820360E0F0
:100D500082E00E94C30160E083E00E94C30160E082
:100D600084E00E94C30160E085E00E94C30160E06E
:100D700086E00E94C30160E087E00E94C30160E05A
:100D800088E00E94C30160E089E00E94C30160E046
:100D90008AE00E94C30160E08BE00E94C30160E032
:100DA0008CE00E94C30160E08DE00E94C30161E01D
:100DB00088E00E94C301C701B6010E94820360E07F
:100DC00082E00E94C30160E083E00E94C30160E012
:100DD00084E00E94C30160E085E00E94C30160E0FE
:100DE00086E00E94C30160E087E00E94C30160E0EA
:100DF00088E00E94C30160E089E00E94C30160E0D6
:100E00008AE00E94C30160E08BE00E94C30160E0C1
:100E10008CE00E94C30160E08DE00E94C30161E0AC
:100E200089E00E94C301C701B6010E94820360E00D
:100E300082E00E94C30160E083E00E94C30160E0A1
:100E400084E00E94C30160E085E00E94C30160E08D
:100E500086E00E94C30160E087E00E94C30160E079
:100E600088E00E94C30160E089E00E94C30160E065
:100E70008AE00E94C30160E08BE00E94C30160E051
:100E80008CE00E94C30160E08DE00E94C30161E03C
:100E90008AE00E94C301C701B6010E94820360E09C
:100EA00082E00E94C30160E083E00E94C30160E031
:100EB00084E00E94C30160E085E00E94C30160E01D
:100EC00086E00E94C30160E087E00E94C30160E009
:100ED00088E00E94C30160E089E00E94C30160E0F5
:100EE0008AE00E94C30160E08BE00E94C30160E0E1
:100EF0008CE00E94C30160E08DE00E94C30161E0CC
:100F00008BE00E94C301C701B6010E94820360E02A
:100F100082E00E94C30160E083E00E94C30160E0C0
:100F200084E00E94C30160E085E00E94C30160E0AC
:100F300086E00E94C30160E087E00E94C30160E098
:100F400088E00E94C30160E089E00E94C30160E084
:100F50008AE00E94C30160E08BE00E94C30160E070
:100F60008CE00E94C30160E08DE00E94C30161E05B
:100F70008CE00E94C301C701B6010E94820360E0B9
:100F800082E00E94C30160E083E00E94C30160E050
:100F900084E00E94C30160E085E00E94C30160E03C
:100FA00086E00E94C30160E087E00E94C30160E028
:100FB00088E00E94C30160E089E00E94C30160E014
:100FC0008AE00E94C30160E08BE00E94C30160E000
:100FD0008CE00E94C30160E08DE00E94C30161E0EB
:100FE0008DE00E94C301C701B6010E94820360E048
:100FF00082E00E94C30160E083E00E94C30160E0E0
:1010000084E00E94C30160E085E00E94C30160E0CB
:1010100086E00E94C30160E087E00E94C30160E0B7
:1010200088E00E94C30160E089E00E94C30160E0A3
:101030008AE00E94C30160E08BE00E94C30160E08F
:101040008CE00E94C30160E08DE00E94C30161E07A
:101050008CE00E94C301C701B6010E94820360E0D8
:1010600082E00E94C30160E083E00E94C30160E06F
:1010700084E00E94C30160E085E00E94C30160E05B
:1010800086E00E94C30160E087E00E94C30160E047
:1010900088E00E94C30160E089E00E94C30160E033
:1010A0008AE00E94C30160E08BE00E94C30160E01F
:1010B0008CE00E94C30160E08DE00E94C30161E00A
:1010C0008BE00E94C301C701B6010E94820360E069
:1010D00082E00E94C30160E083E00E94C30160E0FF
:1010E00084E00E94C30160E085E00E94C30160E0EB
:1010F00086E00E94C30160E087E00E94C30160E0D7
:1011000088E00E94C30160E089E00E94C30160E0C2
:101110008AE00E94C30160E08BE00E94C30160E0AE
:101120008CE00E94C30160E08DE00E94C30161E099
:101130008AE00E94C301C701B6010E94820360E0F9
:1011400082E00E94C30160E083E00E94C30160E08E
:1011500084E00E94C30160E085E00E94C30160E07A
:1011600086E00E94C30160E087E00E94C30160E066
:1011700088E00E94C30160E089E00E94C30160E052
:101180008AE00E94C30160E08BE00E94C30160E03E
:101190008CE00E94C30160E08DE00E94C30161E029
:1011A00089E00E94C301C701B6010E94820360E08A
:1011B00082E00E94C30160E083E00E94C30160E01E
:1011C00084E00E94C30160E085E00E94C30160E00A
:1011D00086E00E94C30160E087E00E94C30160E0F6
:1011E00088E00E94C30160E089E00E94C30160E0E2
:1011F0008AE00E94C30160E08BE00E94C30160E0CE
:101200008CE00E94C30160E08DE00E94C30161E0B8
:1012100088E00E94C301C701B6010E94820360E01A
:1012200082E00E94C30160E083E00E94C30160E0AD
:1012300084E00E94C30160E085E00E94C30160E099
:1012400086E00E94C30160E087E00E94C30160E085
:1012500088E00E94C30160E089E00E94C30160E071
:101260008AE00E94C30160E08BE00E94C30160E05D
:101270008CE00E94C30160E08DE00E94C30161E048
:1012800087E00E94C301C701B6010E94820360E0AB
:1012900082E00E94C30160E083E00E94C30160E03D
:1012A00084E00E94C30160E085E00E94C30160E029
:1012B00086E00E94C30160E087E00E94C30160E015
:1012C00088E00E94C30160E089E00E94C30160E001
:1012D0008AE00E94C30160E08BE00E94C30160E0ED
:1012E0008CE00E94C30160E08DE00E94C30161E0D8
:1012F00086E00E94C301C701B6010E94820360E03C
:1013000082E00E94C30160E083E00E94C30160E0CC
:1013100084E00E94C30160E085E00E94C30160E0B8
:1013200086E00E94C30160E087E00E94C30160E0A4
:1013300088E00E94C30160E089E00E94C30160E090
:101340008AE00E94C30160E08BE00E94C30160E07C
:101350008CE00E94C30160E08DE00E94C30161E067
:1013600085E00E94C301C701B6010E94820360E0CC
:1013700082E00E94C30160E083E00E94C30160E05C
:1013800084E00E94C30160E085E00E94C30160E048
:1013900086E00E94C30160E087E00E94C30160E034
:1013A00088E00E94C30160E089E00E94C30160E020
:1013B0008AE00E94C30160E08BE00E94C30160E00C
:1013C0008CE00E94C30160E08DE00E94C30161E0F7
:1013D00084E00E94C301C701B6010E94820360E05D
:1013E00082E00E94C30160E083E00E94C30160E0EC
:1013F00084E00E94C30160E085E00E94C30160E0D8
:1014000086E00E94C30160E087E00E94C30160E0C3
:1014100088E00E94C30160E089E00E94C30160E0AF
:101420008AE00E94C30160E08BE00E94C30160E09B
:101430008CE00E94C30160E08DE00E94C30161E086
:1014400083E00E94C301C701B6010E94820360E0ED
:1014500082E00E94C30160E083E00E94C30160E07B
:1014600084E00E94C30160E085E00E94C30160E067
:1014700086E00E94C30160E087E00E94C30160E053
:1014800088E00E94C30160E089E00E94C30160E03F
:101490008AE00E94C30160E08BE00E94C30160E02B
:1014A0008CE00E94C30160E08DE00E94C301EEE782
:1014B000F0E08491F101F490F501E490E11048C06E
:1014C00017FF02C00F5F1F4F15950795109301017D
:1014D000009300016801012E000CEE08FF0817FFC1
:1014E00052C06DE281E291E00E942D012227332754
:1014F000A9012C193D094E095F0919A28E010F5D42
:101500001F4FCA01B901A30192010E94060B605D41
:10151000F80162938F01211531054105510589F7C5
:101520000115110561F001900020E9F73197AF0135
:10153000401B510BB80181E291E00E948D0042E016
:1015400050E065E171E081E291E00E948D000FC002
:1015500081110E949A01EE2DF0E0EE0FFF1FEE5870
:10156000FF4FA591B4918C91F82209F4A9CF811471
:10157000910409F4FBCA0E94F700882309F4F6CA13
:101580000E940000F3CAA701960119A28E010F5D07
:101590001F4FCA01B901A30192010E94060B605DB1
:1015A000F80162938F01211531054105510589F735
:1015B000B7CFE1E2F1E01382128288EE93E0A0E07F
:1015C000B0E084839583A683B78387E091E091831D
:1015D000808385EC90E09587848784EC90E0978702
:1015E000868780EC90E0918B808B81EC90E0938BF0
:1015F000828B82EC90E0958B848B86EC90E0978BCD
:10160000868B118E128E138E148E0895A1E21A2EDF
:10161000AA1BBB1BFD010DC0AA1FBB1FEE1FFF1F96
:10162000A217B307E407F50720F0A21BB30BE40BE6
:10163000F50B661F771F881F991F1A9469F760952D
:101640007095809590959B01AC01BD01CF010895E7
:10165000052E97FB1EF400940E943F0B57FD07D008
:101660000E94060B07FC03D04EF40C943F0B5095E0
:101670004095309521953F4F4F4F5F4F089590957E
:101680008095709561957F4F8F4F9F4F08950E9471
:10169000580BA59F900DB49F900DA49F800D911D98
:1016A00011240895EE0FFF1F0590F491E02D099489
:1016B000A29FB001B39FC001A39F700D811D112493
:1016C000911DB29F700D811D1124911D0895F894F4
:0216D000FFCF4A
:1016D2006400FF000000002D018D00BA007A01EBCA
:0816E20000C900DD000D0A0043
:00000001FF
