:100000000C9463000C948B000C948B000C948B006C
:100010000C948B000C948B000C948B000C945A085D
:100020000C948B000C948B000C948B000C948B0024
:100030000C948B000C948B000C948B000C948B0014
:100040000C9434090C948B000C9402090C94DC0879
:100050000C948B000C948B000C948B000C948B00F4
:100060000C948B000C948B000000000024002700EF
:100070002A000000000023002600290000000008DC
:10008000000201000003040700000000000000005F
:10009000010204081020408001020408102001021F
:1000A0000408102000000000250028002B00040494
:1000B0000404040404040202020202020303030310
:1000C00003030200810A11241FBECFEFD8E0DEBF78
:1000D000CDBF11E0A0E0B1E0E2E2F6E102C00590A0
:1000E0000D92A431B107D9F721E0A4E1B1E001C03C
:1000F0001D92AD3CB207E1F710E0C3E6D0E004C0CA
:100100002197FE010E94FA0AC236D107C9F70E9460
:100110007E090C940F0B0C940000AF92BF92CF920B
:10012000DF92EF92FF920F931F93CF93DF936C01B7
:100130007B018B01040F151FEB015E01AE18BF0898
:10014000C017D10759F06991D601ED91FC9101904A
:10015000F081E02DC6010995892B79F7C501DF9162
:10016000CF911F910F91FF90EF90DF90CF90BF90B4
:10017000AF900895FC01538D448D252F30E0842FDE
:1001800090E0821B930B541710F0CF9608950197BF
:100190000895FC01918D828D981761F0A28DAE0FAC
:1001A000BF2FB11D5D968C91928D9F5F9F73928F33
:1001B00090E008958FEF9FEF0895FC01918D828D5F
:1001C000981731F0828DE80FF11D858D90E008952C
:1001D0008FEF9FEF0895FC01918D228D892F90E084
:1001E000805C9F4F821B91098F73992708958DE141
:1001F00091E00E94EB0021E0892B09F420E0822F9E
:10020000089580E090E0892B29F00E94F700811189
:100210000C9400000895FC01A48DA80FB92FB11D06
:10022000A35ABF4F2C91848D90E001968F7399272C
:10023000848FA689B7892C93A089B1898C9183700A
:1002400080648C93938D848D981306C00288F38903
:10025000E02D80818F7D80830895EF92FF920F9330
:100260001F93CF93DF93EC0181E0888F9B8D8C8D62
:1002700098131AC0E889F989808185FF15C09FB756
:10028000F894EE89FF896083E889F9898081837019
:10029000806480839FBF81E090E0DF91CF911F91C8
:1002A0000F91FF90EF900895F62E0B8D10E00F5FE9
:1002B0001F4F0F731127E02E8C8D8E110CC00FB6BF
:1002C00007FCFACFE889F989808185FFF5CFCE0157
:1002D0000E940B01F1CFEB8DEC0FFD2FF11DE35AC6
:1002E000FF4FF0829FB7F8940B8FEA89FB898081DA
:1002F0008062CFCFCF93DF93EC01888D8823B9F054
:10030000AA89BB89E889F9898C9185FD03C0808120
:1003100086FD0DC00FB607FCF7CF8C9185FFF2CF9D
:10032000808185FFEDCFCE010E940B01E9CFDF91E7
:10033000CF910895833081F028F4813099F0823094
:10034000A9F008958730A9F08830C9F08430B1F45D
:10035000809180008F7D03C0809180008F77809393
:100360008000089584B58F7784BD089584B58F7D0E
:10037000FBCF8091B0008F778093B000089580917B
:10038000B0008F7DF9CF1F93CF93DF93282F30E0FC
:10039000F901E458FF4F8491F901E057FF4FD491E0
:1003A000F901E255FF4FC491CC23A9F0162F81111A
:1003B0000E949A01EC2FF0E0EE0FFF1FEC55FF4F6B
:1003C000A591B4918FB7F894EC91111108C0D09514
:1003D000DE23DC938FBFDF91CF911F910895DE2B39
:1003E000F8CFCF93DF9390E0FC01E057FF4F2491CB
:1003F00082559F4FFC0184918823D1F090E0880FB3
:10040000991FFC01E859FF4FA591B491FC01EC55EF
:10041000FF4FC591D491623071F49FB7F8943C912D
:10042000822F809583238C93E8812E2B28839FBF76
:10043000DF91CF9108958FB7F894EC912E2B2C93E8
:100440008FBFF6CF4F925F926F927F928F929F9263
:10045000AF92BF92CF92DF92EF92FF920F931F93D2
:10046000CF938C016A017B0180910001883099F063
:100470008F3F09F453C0CF911F910F91FF90EF90E0
:10048000DF90CF90BF90AF909F908F907F906F90B4
:100490005F904F900895E2ECF0E0C491C7FDEBCF80
:1004A00061E088E00E94F1012801712C612CCC23CD
:1004B000F1F0980150E040E0C23009F09EC0280100
:1004C0003A0164E274EF80E090E00E94D00A4901B2
:1004D0005A0181E0881A9108A108B10895E08FEFD0
:1004E00088169104A104B10409F00CF4DFC062E1A4
:1004F0007AE780E090E0A30192010E94D00A4901CE
:100500005A0181E0881A9108A108B10896E0C1114A
:10051000CDC085B5887F846085BD84C088E0809328
:100520000001E2ECF0E0C491CF3F09F4A4CFC13068
:1005300021F150F0C23009F43EC0C7FD9CCF61E00C
:1005400088E00E94F101B5CF14BC15BC84B582606F
:1005500084BD85B5816085BDE6EBF0E0E491F0E017
:10056000EE0FFF1FEC55FF4F85919491E8E9F0E005
:10057000E491E093C001C0E093CF1092800010920C
:10058000810080918100886080938100809181004A
:10059000816080938100E6EBF0E0E491F0E0EE0F03
:1005A000FF1FEC55FF4F85919491E8E9F0E0E4914D
:1005B000E093BF0175CF1092B0001092B10080910E
:1005C000B00082608093B0008091B1008160809320
:1005D000B100E6EBF0E0E491F0E0EE0FFF1FEC5528
:1005E000FF4F859194919093BE018093BD01E8E9FE
:1005F000F0E0E491E093BC0153CF60E072E18AE760
:1006000090E00E94D00A49015A0181E0881A9108BD
:10061000A108B108C13031F480918100887F8160E8
:1006200080938100D801AA0FBB1FA70196010E94E9
:10063000EF0A28EE33E040E050E00E94AE0AC130FD
:1006400099F0C23019F1C11116CF87BC2093C901AE
:100650003093CA014093CB015093CC0180916E003E
:10066000826080936E0007CF90928900809288000C
:100670002093C5013093C6014093C7015093C80130
:1006800080916F00826080936F00F5CE8092B300FE
:100690002093C1013093C2014093C3015093C40120
:1006A00080917000826080937000E5CE8091B100EF
:1006B000887F892B8093B100B5CF3FB7F8948091A4
:1006C000190190911A01A0911B01B0911C0126B54E
:1006D000A89B05C02F3F19F00196A11DB11D3FBF7A
:1006E000BA2FA92F982F8827BC01CD01620F711D49
:1006F000811D911D42E0660F771F881F991F4A9543
:10070000D1F708958F929F92AF92BF92CF92DF92CE
:10071000EF92FF926B017C010E945D034B015C0133
:10072000C114D104E104F104B9F00E945D03681919
:1007300079098A099B09683E73408105910580F318
:1007400021E0C21AD108E108F10888EE880E83E0A2
:10075000981EA11CB11CE4CFFF90EF90DF90CF90CA
:10076000BF90AF909F908F900895CF92DF92EF92BD
:10077000FF926C0161E083E00E94C3010D2C000C2C
:10078000EE08FF08C701B6010E94820360E082E024
:100790000E94C30160E083E00E94C30160E084E046
:1007A0000E94C30160E085E00E94C30160E086E032
:1007B0000E94C30160E087E00E94C30160E088E01E
:1007C0000E94C30160E089E00E94C30160E08AE00A
:1007D0000E94C30160E08BE00E94C30160E08CE0F6
:1007E0000E94C30160E08DE00E94C30161E084E0EB
:1007F0000E94C301C701B6010E94820360E082E04B
:100800000E94C30160E083E00E94C30160E084E0D5
:100810000E94C30160E085E00E94C30160E086E0C1
:100820000E94C30160E087E00E94C30160E088E0AD
:100830000E94C30160E089E00E94C30160E08AE099
:100840000E94C30160E08BE00E94C30160E08CE085
:100850000E94C30160E08DE00E94C30161E085E079
:100860000E94C301C701B6010E94820360E082E0DA
:100870000E94C30160E083E00E94C30160E084E065
:100880000E94C30160E085E00E94C30160E086E051
:100890000E94C30160E087E00E94C30160E088E03D
:1008A0000E94C30160E089E00E94C30160E08AE029
:1008B0000E94C30160E08BE00E94C30160E08CE015
:1008C0000E94C30160E08DE00E94C30161E086E008
:1008D0000E94C301C701B6010E94820360E082E06A
:1008E0000E94C30160E083E00E94C30160E084E0F5
:1008F0000E94C30160E085E00E94C30160E086E0E1
:100900000E94C30160E087E00E94C30160E088E0CC
:100910000E94C30160E089E00E94C30160E08AE0B8
:100920000E94C30160E08BE00E94C30160E08CE0A4
:100930000E94C30160E08DE00E94C30161E087E096
:100940000E94C301C701B6010E94820360E082E0F9
:100950000E94C30160E083E00E94C30160E084E084
:100960000E94C30160E085E00E94C30160E086E070
:100970000E94C30160E087E00E94C30160E088E05C
:100980000E94C30160E089E00E94C30160E08AE048
:100990000E94C30160E08BE00E94C30160E08CE034
:1009A0000E94C30160E08DE00E94C30161E088E025
:1009B0000E94C301C701B6010E94820360E082E089
:1009C0000E94C30160E083E00E94C30160E084E014
:1009D0000E94C30160E085E00E94C30160E086E000
:1009E0000E94C30160E087E00E94C30160E088E0EC
:1009F0000E94C30160E089E00E94C30160E08AE0D8
:100A00000E94C30160E08BE00E94C30160E08CE0C3
:100A10000E94C30160E08DE00E94C30161E089E0B3
:100A20000E94C301C701B6010E94820360E082E018
:100A30000E94C30160E083E00E94C30160E084E0A3
:100A40000E94C30160E085E00E94C30160E086E08F
:100A50000E94C30160E087E00E94C30160E088E07B
:100A60000E94C30160E089E00E94C30160E08AE067
:100A70000E94C30160E08BE00E94C30160E08CE053
:100A80000E94C30160E08DE00E94C30161E08AE042
:100A90000E94C301C701B6010E94820360E082E0A8
:100AA0000E94C30160E083E00E94C30160E084E033
:100AB0000E94C30160E085E00E94C30160E086E01F
:100AC0000E94C30160E087E00E94C30160E088E00B
:100AD0000E94C30160E089E00E94C30160E08AE0F7
:100AE0000E94C30160E08BE00E94C30160E08CE0E3
:100AF0000E94C30160E08DE00E94C30161E08BE0D1
:100B00000E94C301C701B6010E94820360E082E037
:100B10000E94C30160E083E00E94C30160E084E0C2
:100B20000E94C30160E085E00E94C30160E086E0AE
:100B30000E94C30160E087E00E94C30160E088E09A
:100B40000E94C30160E089E00E94C30160E08AE086
:100B50000E94C30160E08BE00E94C30160E08CE072
:100B60000E94C30160E08DE00E94C30161E08CE05F
:100B70000E94C301C701B6010E94820360E082E0C7
:100B80000E94C30160E083E00E94C30160E084E052
:100B90000E94C30160E085E00E94C30160E086E03E
:100BA0000E94C30160E087E00E94C30160E088E02A
:100BB0000E94C30160E089E00E94C30160E08AE016
:100BC0000E94C30160E08BE00E94C30160E08CE002
:100BD0000E94C30160E08DE00E94C30161E08DE0EE
:100BE0000E94C301C701B6010E94820360E082E057
:100BF0000E94C30160E083E00E94C30160E084E0E2
:100C00000E94C30160E085E00E94C30160E086E0CD
:100C10000E94C30160E087E00E94C30160E088E0B9
:100C20000E94C30160E089E00E94C30160E08AE0A5
:100C30000E94C30160E08BE00E94C30160E08CE091
:100C40000E94C30160E08DE00E94C30161E08CE07E
:100C50000E94C301C701B6010E94820360E082E0E6
:100C60000E94C30160E083E00E94C30160E084E071
:100C70000E94C30160E085E00E94C30160E086E05D
:100C80000E94C30160E087E00E94C30160E088E049
:100C90000E94C30160E089E00E94C30160E08AE035
:100CA0000E94C30160E08BE00E94C30160E08CE021
:100CB0000E94C30160E08DE00E94C30161E08BE00F
:100CC0000E94C301C701B6010E94820360E082E076
:100CD0000E94C30160E083E00E94C30160E084E001
:100CE0000E94C30160E085E00E94C30160E086E0ED
:100CF0000E94C30160E087E00E94C30160E088E0D9
:100D00000E94C30160E089E00E94C30160E08AE0C4
:100D10000E94C30160E08BE00E94C30160E08CE0B0
:100D20000E94C30160E08DE00E94C30161E08AE09F
:100D30000E94C301C701B6010E94820360E082E005
:100D40000E94C30160E083E00E94C30160E084E090
:100D50000E94C30160E085E00E94C30160E086E07C
:100D60000E94C30160E087E00E94C30160E088E068
:100D70000E94C30160E089E00E94C30160E08AE054
:100D80000E94C30160E08BE00E94C30160E08CE040
:100D90000E94C30160E08DE00E94C30161E089E030
:100DA0000E94C301C701B6010E94820360E082E095
:100DB0000E94C30160E083E00E94C30160E084E020
:100DC0000E94C30160E085E00E94C30160E086E00C
:100DD0000E94C30160E087E00E94C30160E088E0F8
:100DE0000E94C30160E089E00E94C30160E08AE0E4
:100DF0000E94C30160E08BE00E94C30160E08CE0D0
:100E00000E94C30160E08DE00E94C30161E088E0C0
:100E10000E94C301C701B6010E94820360E082E024
:100E20000E94C30160E083E00E94C30160E084E0AF
:100E30000E94C30160E085E00E94C30160E086E09B
:100E40000E94C30160E087E00E94C30160E088E087
:100E50000E94C30160E089E00E94C30160E08AE073
:100E60000E94C30160E08BE00E94C30160E08CE05F
:100E70000E94C30160E08DE00E94C30161E087E051
:100E80000E94C301C701B6010E94820360E082E0B4
:100E90000E94C30160E083E00E94C30160E084E03F
:100EA0000E94C30160E085E00E94C30160E086E02B
:100EB0000E94C30160E087E00E94C30160E088E017
:100EC0000E94C30160E089E00E94C30160E08AE003
:100ED0000E94C30160E08BE00E94C30160E08CE0EF
:100EE0000E94C30160E08DE00E94C30161E086E0E2
:100EF0000E94C301C701B6010E94820360E082E044
:100F00000E94C30160E083E00E94C30160E084E0CE
:100F10000E94C30160E085E00E94C30160E086E0BA
:100F20000E94C30160E087E00E94C30160E088E0A6
:100F30000E94C30160E089E00E94C30160E08AE092
:100F40000E94C30160E08BE00E94C30160E08CE07E
:100F50000E94C30160E08DE00E94C30161E085E072
:100F60000E94C301C701B6010E94820360E082E0D3
:100F70000E94C30160E083E00E94C30160E084E05E
:100F80000E94C30160E085E00E94C30160E086E04A
:100F90000E94C30160E087E00E94C30160E088E036
:100FA0000E94C30160E089E00E94C30160E08AE022
:100FB0000E94C30160E08BE00E94C30160E08CE00E
:100FC0000E94C30160E08DE00E94C30161E084E003
:100FD0000E94C301C701B6010E94820360E082E063
:100FE0000E94C30160E083E00E94C30160E084E0EE
:100FF0000E94C30160E085E00E94C30160E086E0DA
:101000000E94C30160E087E00E94C30160E088E0C5
:101010000E94C30160E089E00E94C30160E08AE0B1
:101020000E94C30160E08BE00E94C30160E08CE09D
:101030000E94C30160E08DE00E94C30161E083E093
:101040000E94C301C701B6010E94820360E082E0F2
:101050000E94C30160E083E00E94C30160E084E07D
:101060000E94C30160E085E00E94C30160E086E069
:101070000E94C30160E087E00E94C30160E088E055
:101080000E94C30160E089E00E94C30160E08AE041
:101090000E94C30160E08BE00E94C30160E08CE02D
:1010A0000E94C30160E08DE0FF90EF90DF90CF9051
:1010B0000C94C3011F920F920FB60F9211242F931D
:1010C0003F934F935F936F937F938F939F93AF93D0
:1010D000BF93EF93FF938091C1019091C201A091C2
:1010E000C301B091C401892B8A2B8B2BD1F1909134
:1010F000BC01E091BD01F091BE0180818927808310
:101100008091C1019091C201A091C301B091C4012D
:10111000181619061A061B069CF48091C1019091BD
:10112000C201A091C301B091C4010197A109B10905
:101130008093C1019093C201A093C301B093C401F5
:10114000FF91EF91BF91AF919F918F917F916F919F
:101150005F914F913F912F910F900FBE0F901F9075
:10116000189580910001E2ECF0E0E4919FEF9093FC
:101170000001E13051F030F0E23069F060E00E94AF
:10118000C301DECF10926E00F9CF90916F009D7F6A
:1011900090936F00F3CF909170009D7F90937000BB
:1011A00091E09093B0009091B100987F94609093FB
:1011B000B1001092B300E2CF1F920F920FB60F92C0
:1011C00011242F933F934F935F936F937F938F934C
:1011D0009F93AF93BF93EF93FF938DE191E00E94B4
:1011E0000B01FF91EF91BF91AF919F918F917F91F3
:1011F0006F915F914F913F912F910F900FBE0F9084
:101200001F9018951F920F920FB60F9211242F93D3
:101210008F939F93EF93FF93E0912D01F0912E0117
:101220008081E0913301F091340182FD1BC09081F7
:10123000809136018F5F8F7320913701821741F0C3
:10124000E0913601F0E0E35EFE4F958F809336012A
:10125000FF91EF919F918F912F910F900FBE0F9063
:101260001F9018958081F4CF1F920F920FB60F92A6
:1012700011242F933F938F939F93AF93BF938091AC
:10128000150190911601A0911701B09118013091AC
:10129000140123E0230F2D3758F50196A11DB11D30
:1012A000209314018093150190931601A0931701C8
:1012B000B09318018091190190911A01A0911B011E
:1012C000B0911C010196A11DB11D8093190190934D
:1012D0001A01A0931B01B0931C01BF91AF919F9184
:1012E0008F913F912F910F900FBE0F901F901895E7
:1012F00026E8230F0296A11DB11DD2CF789484B5A4
:10130000826084BD84B5816084BD85B5826085BD01
:1013100085B5816085BD80916E00816080936E008F
:101320001092810080918100826080938100809181
:101330008100816080938100809180008160809332
:1013400080008091B10084608093B1008091B000F2
:1013500081608093B00080917A00846080937A00ED
:1013600080917A00826080937A0080917A00816017
:1013700080937A0080917A00806880937A0010923E
:10138000C100E0912D01F0912E0182E08083E09177
:101390002901F0912A011082E0912B01F0912C019A
:1013A0008FEC808310923501E0913101F091320190
:1013B00086E08083E0912F01F0913001808180618F
:1013C0008083E0912F01F0913001808188608083DB
:1013D000E0912F01F0913001808180688083E0915D
:1013E0002F01F091300180818F7D808361E088E062
:1013F0000E94F10144EF51E060E070E088EC90E081
:101400000E9422026AEF70E080E090E00E94820376
:1014100044E650E060E070E080E991E00E94220242
:1014200061E083E00E94F10161E084E00E94F1014B
:1014300061E085E00E94F10161E086E00E94F10137
:1014400061E087E00E94F10161E088E00E94F10123
:1014500061E089E00E94F10161E08AE00E94F1010F
:1014600061E08BE00E94F10161E08CE00E94F101FB
:1014700061E08DE00E94F10162E082E00E94F101F2
:10148000C4E6D0E00EE710E092E9E92E90E0F92EF4
:1014900020EBC22E20E0D22E30E0A32E30E0B32E7F
:1014A00042E3842E912CD093BB01C093BA01F80182
:1014B0008491F7017490F6016490662081F08111A7
:1014C0000E949A01E62DF0E0EE0FFF1FEE58FF4F4D
:1014D000A591B4918C91782284E690E031F49092B9
:1014E000BB018092BA0182E390E00E94B503A1148F
:1014F000B104C9F20E94F7008823A9F20E940000FB
:10150000D2CFEDE1F1E01382128288EE93E0A0E009
:10151000B0E084839583A683B78385E091E09183CF
:10152000808385EC90E09587848784EC90E09787B2
:10153000868780EC90E0918B808B81EC90E0938BA0
:10154000828B82EC90E0958B848B86EC90E0978B7D
:10155000868B118E128E138E148E0895A1E21A2E90
:10156000AA1BBB1BFD010DC0AA1FBB1FEE1FFF1F47
:10157000A217B307E407F50720F0A21BB30BE40B97
:10158000F50B661F771F881F991F1A9469F76095DE
:101590007095809590959B01AC01BD01CF01089598
:1015A000052E97FB1EF400940E94E70A57FD07D012
:1015B0000E94AE0A07FC03D04EF40C94E70A509543
:1015C0004095309521953F4F4F4F5F4F089590952F
:1015D0008095709561957F4F8F4F9F4F08950E9422
:1015E000000BA59F900DB49F900DA49F800D911DA1
:1015F00011240895EE0FFF1F0590F491E02D09943A
:10160000A29FB001B39FC001A39F700D811D112443
:10161000911DB29F700D811D1124911D0895F894A4
:02162000FFCFFA
:10162200FF000000002D018D00BA007A01EB00C915
:0416320000DD0000D7
:107E0000112484B714BE81FFF0D085E080938100F7
:107E100082E08093C00088E18093C10086E0809377
:107E2000C20080E18093C4008EE0C9D0259A86E02C
:107E300020E33CEF91E0309385002093840096BBD3
:107E4000B09BFECF1D9AA8958150A9F7CC24DD24C4
:107E500088248394B5E0AB2EA1E19A2EF3E0BF2EE7
:107E6000A2D0813461F49FD0082FAFD0023811F036
:107E7000013811F484E001C083E08DD089C08234E0
:107E800011F484E103C0853419F485E0A6D080C0E4
:107E9000853579F488D0E82EFF2485D0082F10E0AE
:107EA000102F00270E291F29000F111F8ED06801E7
:107EB0006FC0863521F484E090D080E0DECF843638
:107EC00009F040C070D06FD0082F6DD080E0C81688
:107ED00080E7D80618F4F601B7BEE895C0E0D1E017
:107EE00062D089930C17E1F7F0E0CF16F0E7DF06D8
:107EF00018F0F601B7BEE89568D007B600FCFDCFD4
:107F0000A601A0E0B1E02C9130E011968C91119780
:107F100090E0982F8827822B932B1296FA010C0160
:107F200087BEE89511244E5F5F4FF1E0A038BF0790
:107F300051F7F601A7BEE89507B600FCFDCF97BE46
:107F4000E89526C08437B1F42ED02DD0F82E2BD052
:107F50003CD0F601EF2C8F010F5F1F4F84911BD097
:107F6000EA94F801C1F70894C11CD11CFA94CF0C13
:107F7000D11C0EC0853739F428D08EE10CD085E9AC
:107F80000AD08FE07ACF813511F488E018D01DD067
:107F900080E101D065CF982F8091C00085FFFCCF94
:107FA0009093C60008958091C00087FFFCCF809118
:107FB000C00084FD01C0A8958091C6000895E0E648
:107FC000F0E098E1908380830895EDDF803219F02E
:107FD00088E0F5DFFFCF84E1DECF1F93182FE3DFCA
:107FE0001150E9F7F2DF1F91089580E0E8DFEE27F6
:047FF000FF270994CA
:027FFE00040479
:0400000300007E007B
:00000001FF
